{
  "contractName": "Dex",
  "abi": [
    {
      "anonymous": false,
      "inputs": [
        {
          "indexed": true,
          "internalType": "address",
          "name": "previousOwner",
          "type": "address"
        },
        {
          "indexed": true,
          "internalType": "address",
          "name": "newOwner",
          "type": "address"
        }
      ],
      "name": "OwnershipTransferred",
      "type": "event"
    },
    {
      "inputs": [
        {
          "internalType": "bytes32",
          "name": "ticker",
          "type": "bytes32"
        },
        {
          "internalType": "address",
          "name": "tokenAddress",
          "type": "address"
        }
      ],
      "name": "addToken",
      "outputs": [],
      "stateMutability": "nonpayable",
      "type": "function"
    },
    {
      "inputs": [
        {
          "internalType": "address",
          "name": "",
          "type": "address"
        },
        {
          "internalType": "bytes32",
          "name": "",
          "type": "bytes32"
        }
      ],
      "name": "balances",
      "outputs": [
        {
          "internalType": "uint256",
          "name": "",
          "type": "uint256"
        }
      ],
      "stateMutability": "view",
      "type": "function",
      "constant": true
    },
    {
      "inputs": [
        {
          "internalType": "uint256",
          "name": "amount",
          "type": "uint256"
        },
        {
          "internalType": "bytes32",
          "name": "ticker",
          "type": "bytes32"
        }
      ],
      "name": "deposit",
      "outputs": [],
      "stateMutability": "nonpayable",
      "type": "function"
    },
    {
      "inputs": [],
      "name": "depositEth",
      "outputs": [],
      "stateMutability": "payable",
      "type": "function",
      "payable": true
    },
    {
      "inputs": [],
      "name": "owner",
      "outputs": [
        {
          "internalType": "address",
          "name": "",
          "type": "address"
        }
      ],
      "stateMutability": "view",
      "type": "function",
      "constant": true
    },
    {
      "inputs": [],
      "name": "renounceOwnership",
      "outputs": [],
      "stateMutability": "nonpayable",
      "type": "function"
    },
    {
      "inputs": [
        {
          "internalType": "uint256",
          "name": "",
          "type": "uint256"
        }
      ],
      "name": "tokenList",
      "outputs": [
        {
          "internalType": "bytes32",
          "name": "",
          "type": "bytes32"
        }
      ],
      "stateMutability": "view",
      "type": "function",
      "constant": true
    },
    {
      "inputs": [
        {
          "internalType": "bytes32",
          "name": "",
          "type": "bytes32"
        }
      ],
      "name": "tokenMapping",
      "outputs": [
        {
          "internalType": "bytes32",
          "name": "ticker",
          "type": "bytes32"
        },
        {
          "internalType": "address",
          "name": "tokenAddress",
          "type": "address"
        }
      ],
      "stateMutability": "view",
      "type": "function",
      "constant": true
    },
    {
      "inputs": [
        {
          "internalType": "address",
          "name": "newOwner",
          "type": "address"
        }
      ],
      "name": "transferOwnership",
      "outputs": [],
      "stateMutability": "nonpayable",
      "type": "function"
    },
    {
      "inputs": [
        {
          "internalType": "uint256",
          "name": "amount",
          "type": "uint256"
        },
        {
          "internalType": "bytes32",
          "name": "ticker",
          "type": "bytes32"
        }
      ],
      "name": "withdraw",
      "outputs": [],
      "stateMutability": "nonpayable",
      "type": "function"
    },
    {
      "inputs": [
        {
          "internalType": "bytes32",
          "name": "ticker",
          "type": "bytes32"
        },
        {
          "internalType": "enum Dex.Action",
          "name": "action",
          "type": "uint8"
        }
      ],
      "name": "getOrderBook",
      "outputs": [
        {
          "components": [
            {
              "internalType": "uint256",
              "name": "id",
              "type": "uint256"
            },
            {
              "internalType": "address",
              "name": "trader",
              "type": "address"
            },
            {
              "internalType": "enum Dex.Action",
              "name": "action",
              "type": "uint8"
            },
            {
              "internalType": "bytes32",
              "name": "ticker",
              "type": "bytes32"
            },
            {
              "internalType": "uint256",
              "name": "amount",
              "type": "uint256"
            },
            {
              "internalType": "uint256",
              "name": "price",
              "type": "uint256"
            }
          ],
          "internalType": "struct Dex.Order[]",
          "name": "",
          "type": "tuple[]"
        }
      ],
      "stateMutability": "view",
      "type": "function",
      "constant": true
    },
    {
      "inputs": [
        {
          "internalType": "enum Dex.Action",
          "name": "action",
          "type": "uint8"
        },
        {
          "internalType": "bytes32",
          "name": "ticker",
          "type": "bytes32"
        },
        {
          "internalType": "uint256",
          "name": "amount",
          "type": "uint256"
        },
        {
          "internalType": "uint256",
          "name": "price",
          "type": "uint256"
        }
      ],
      "name": "createLimitOrder",
      "outputs": [],
      "stateMutability": "nonpayable",
      "type": "function"
    }
  ],
  "bytecode": "0x6080604052600060045534801561001557600080fd5b5061003261002761003760201b60201c565b61003f60201b60201c565b610103565b600033905090565b60008060009054906101000a900473ffffffffffffffffffffffffffffffffffffffff169050816000806101000a81548173ffffffffffffffffffffffffffffffffffffffff021916908373ffffffffffffffffffffffffffffffffffffffff1602179055508173ffffffffffffffffffffffffffffffffffffffff168173ffffffffffffffffffffffffffffffffffffffff167f8be0079c531659141344cd1fd0a4f28419497f9722a3daafe3b4186f6b6457e060405160405180910390a35050565b61240380620001136000396000f3fe6080604052600436106100a75760003560e01c80639776aacf116100645780639776aacf1461019c5780639ead7222146101c5578063a8d2021a14610202578063ba58ea681461022b578063c9630cb014610268578063f2fde38b14610291576100a7565b80631f14df69146100ac578063439370b1146100e9578063667cb4ba146100f35780636f3b62f914610131578063715018a61461015a5780638da5cb5b14610171575b600080fd5b3480156100b857600080fd5b506100d360048036038101906100ce9190611968565b6102ba565b6040516100e091906119c1565b60405180910390f35b6100f16102df565b005b3480156100ff57600080fd5b5061011a600480360381019061011591906119dc565b6103d8565b604051610128929190611a27565b60405180910390f35b34801561013d57600080fd5b5061015860048036038101906101539190611aa1565b61041c565b005b34801561016657600080fd5b5061016f610ec9565b005b34801561017d57600080fd5b50610186610f51565b6040516101939190611b08565b60405180910390f35b3480156101a857600080fd5b506101c360048036038101906101be9190611b23565b610f7a565b005b3480156101d157600080fd5b506101ec60048036038101906101e79190611b63565b6110b5565b6040516101f99190611b90565b60405180910390f35b34801561020e57600080fd5b5061022960048036038101906102249190611bab565b6110d9565b005b34801561023757600080fd5b50610252600480360381019061024d9190611beb565b61134e565b60405161025f9190611df9565b60405180910390f35b34801561027457600080fd5b5061028f600480360381019061028a9190611bab565b6114af565b005b34801561029d57600080fd5b506102b860048036038101906102b39190611e1b565b6116c9565b005b6003602052816000526040600020602052806000526040600020600091509150505481565b61036234600360003373ffffffffffffffffffffffffffffffffffffffff1673ffffffffffffffffffffffffffffffffffffffff16815260200190815260200160002060007f45544800000000000000000000000000000000000000000000000000000000008152602001908152602001600020546117c190919063ffffffff16565b600360003373ffffffffffffffffffffffffffffffffffffffff1673ffffffffffffffffffffffffffffffffffffffff16815260200190815260200160002060007f4554480000000000000000000000000000000000000000000000000000000000815260200190815260200160002081905550565b60016020528060005260406000206000915090508060000154908060010160009054906101000a900473ffffffffffffffffffffffffffffffffffffffff16905082565b600060018111156104305761042f611c75565b5b84600181111561044357610442611c75565b5b14156105135761045c81836117d790919063ffffffff16565b600360003373ffffffffffffffffffffffffffffffffffffffff1673ffffffffffffffffffffffffffffffffffffffff16815260200190815260200160002060007f4554480000000000000000000000000000000000000000000000000000000000815260200190815260200160002054101561050e576040517f08c379a000000000000000000000000000000000000000000000000000000000815260040161050590611ea5565b60405180910390fd5b610613565b60018081111561052657610525611c75565b5b84600181111561053957610538611c75565b5b14156105d75781600360003373ffffffffffffffffffffffffffffffffffffffff1673ffffffffffffffffffffffffffffffffffffffff16815260200190815260200160002060008581526020019081526020016000205410156105d2576040517f08c379a00000000000000000000000000000000000000000000000000000000081526004016105c990611f37565b60405180910390fd5b610612565b6040517f08c379a000000000000000000000000000000000000000000000000000000000815260040161060990611fc9565b60405180910390fd5b5b600060056000858152602001908152602001600020600086600181111561063d5761063c611c75565b5b600181111561064f5761064e611c75565b5b81526020019081526020016000209050806040518060c001604052806004600081548092919061067e90612018565b9190505581526020013373ffffffffffffffffffffffffffffffffffffffff1681526020018760018111156106b6576106b5611c75565b5b81526020018681526020018581526020018481525090806001815401808255809150506001900390600052602060002090600502016000909190919091506000820151816000015560208201518160010160006101000a81548173ffffffffffffffffffffffffffffffffffffffff021916908373ffffffffffffffffffffffffffffffffffffffff16021790555060408201518160010160146101000a81548160ff021916908360018111156107705761076f611c75565b5b0217905550606082015181600201556080820151816003015560a0820151816004015550506000808280549050116107a95760006107bb565b600182805490506107ba9190612061565b5b9050600060018111156107d1576107d0611c75565b5b8660018111156107e4576107e3611c75565b5b1415610b41575b6000811115610b3c57816001826108029190612061565b8154811061081357610812612095565b5b90600052602060002090600502016004015482828154811061083857610837612095565b5b9060005260206000209060050201600401541161085457610b3c565b600082828154811061086957610868612095565b5b90600052602060002090600502016040518060c0016040529081600082015481526020016001820160009054906101000a900473ffffffffffffffffffffffffffffffffffffffff1673ffffffffffffffffffffffffffffffffffffffff1673ffffffffffffffffffffffffffffffffffffffff1681526020016001820160149054906101000a900460ff16600181111561090757610906611c75565b5b600181111561091957610918611c75565b5b8152602001600282015481526020016003820154815260200160048201548152505090508260018361094b9190612061565b8154811061095c5761095b612095565b5b906000526020600020906005020183838154811061097d5761097c612095565b5b9060005260206000209060050201600082015481600001556001820160009054906101000a900473ffffffffffffffffffffffffffffffffffffffff168160010160006101000a81548173ffffffffffffffffffffffffffffffffffffffff021916908373ffffffffffffffffffffffffffffffffffffffff1602179055506001820160149054906101000a900460ff168160010160146101000a81548160ff02191690836001811115610a3457610a33611c75565b5b02179055506002820154816002015560038201548160030155600482015481600401559050508083600184610a699190612061565b81548110610a7a57610a79612095565b5b90600052602060002090600502016000820151816000015560208201518160010160006101000a81548173ffffffffffffffffffffffffffffffffffffffff021916908373ffffffffffffffffffffffffffffffffffffffff16021790555060408201518160010160146101000a81548160ff02191690836001811115610b0457610b03611c75565b5b0217905550606082015181600201556080820151816003015560a0820151816004015590505081610b34906120c4565b9150506107eb565b610ec1565b600180811115610b5457610b53611c75565b5b866001811115610b6757610b66611c75565b5b1415610ec0575b6000811115610ebf5781600182610b859190612061565b81548110610b9657610b95612095565b5b906000526020600020906005020160040154828281548110610bbb57610bba612095565b5b90600052602060002090600502016004015410610bd757610ebf565b6000828281548110610bec57610beb612095565b5b90600052602060002090600502016040518060c0016040529081600082015481526020016001820160009054906101000a900473ffffffffffffffffffffffffffffffffffffffff1673ffffffffffffffffffffffffffffffffffffffff1673ffffffffffffffffffffffffffffffffffffffff1681526020016001820160149054906101000a900460ff166001811115610c8a57610c89611c75565b5b6001811115610c9c57610c9b611c75565b5b81526020016002820154815260200160038201548152602001600482015481525050905082600183610cce9190612061565b81548110610cdf57610cde612095565b5b9060005260206000209060050201838381548110610d0057610cff612095565b5b9060005260206000209060050201600082015481600001556001820160009054906101000a900473ffffffffffffffffffffffffffffffffffffffff168160010160006101000a81548173ffffffffffffffffffffffffffffffffffffffff021916908373ffffffffffffffffffffffffffffffffffffffff1602179055506001820160149054906101000a900460ff168160010160146101000a81548160ff02191690836001811115610db757610db6611c75565b5b02179055506002820154816002015560038201548160030155600482015481600401559050508083600184610dec9190612061565b81548110610dfd57610dfc612095565b5b90600052602060002090600502016000820151816000015560208201518160010160006101000a81548173ffffffffffffffffffffffffffffffffffffffff021916908373ffffffffffffffffffffffffffffffffffffffff16021790555060408201518160010160146101000a81548160ff02191690836001811115610e8757610e86611c75565b5b0217905550606082015181600201556080820151816003015560a0820151816004015590505081610eb7906120c4565b915050610b6e565b5b5b505050505050565b610ed16117ed565b73ffffffffffffffffffffffffffffffffffffffff16610eef610f51565b73ffffffffffffffffffffffffffffffffffffffff1614610f45576040517f08c379a0000000000000000000000000000000000000000000000000000000008152600401610f3c9061213a565b60405180910390fd5b610f4f60006117f5565b565b60008060009054906101000a900473ffffffffffffffffffffffffffffffffffffffff16905090565b610f826117ed565b73ffffffffffffffffffffffffffffffffffffffff16610fa0610f51565b73ffffffffffffffffffffffffffffffffffffffff1614610ff6576040517f08c379a0000000000000000000000000000000000000000000000000000000008152600401610fed9061213a565b60405180910390fd5b600282908060018154018082558091505060019003906000526020600020016000909190919091505560405180604001604052808381526020018273ffffffffffffffffffffffffffffffffffffffff16815250600160008481526020019081526020016000206000820151816000015560208201518160010160006101000a81548173ffffffffffffffffffffffffffffffffffffffff021916908373ffffffffffffffffffffffffffffffffffffffff1602179055509050505050565b600281815481106110c557600080fd5b906000526020600020016000915090505481565b80600073ffffffffffffffffffffffffffffffffffffffff166001600083815260200190815260200160002060010160009054906101000a900473ffffffffffffffffffffffffffffffffffffffff1673ffffffffffffffffffffffffffffffffffffffff161415611180576040517f08c379a0000000000000000000000000000000000000000000000000000000008152600401611177906121a6565b60405180910390fd5b82600360003373ffffffffffffffffffffffffffffffffffffffff1673ffffffffffffffffffffffffffffffffffffffff16815260200190815260200160002060008481526020019081526020016000205410156111dd57600080fd5b61124083600360003373ffffffffffffffffffffffffffffffffffffffff1673ffffffffffffffffffffffffffffffffffffffff1681526020019081526020016000206000858152602001908152602001600020546118b990919063ffffffff16565b600360003373ffffffffffffffffffffffffffffffffffffffff1673ffffffffffffffffffffffffffffffffffffffff1681526020019081526020016000206000848152602001908152602001600020819055506001600083815260200190815260200160002060010160009054906101000a900473ffffffffffffffffffffffffffffffffffffffff1673ffffffffffffffffffffffffffffffffffffffff1663a9059cbb33856040518363ffffffff1660e01b81526004016113059291906121c6565b6020604051808303816000875af1158015611324573d6000803e3d6000fd5b505050506040513d601f19601f820116820180604052508101906113489190612227565b50505050565b606060056000848152602001908152602001600020600083600181111561137857611377611c75565b5b600181111561138a57611389611c75565b5b8152602001908152602001600020805480602002602001604051908101604052809291908181526020016000905b828210156114a357838290600052602060002090600502016040518060c0016040529081600082015481526020016001820160009054906101000a900473ffffffffffffffffffffffffffffffffffffffff1673ffffffffffffffffffffffffffffffffffffffff1673ffffffffffffffffffffffffffffffffffffffff1681526020016001820160149054906101000a900460ff1660018111156114605761145f611c75565b5b600181111561147257611471611c75565b5b81526020016002820154815260200160038201548152602001600482015481525050815260200190600101906113b8565b50505050905092915050565b80600073ffffffffffffffffffffffffffffffffffffffff166001600083815260200190815260200160002060010160009054906101000a900473ffffffffffffffffffffffffffffffffffffffff1673ffffffffffffffffffffffffffffffffffffffff161415611556576040517f08c379a000000000000000000000000000000000000000000000000000000000815260040161154d906121a6565b60405180910390fd5b6115b983600360003373ffffffffffffffffffffffffffffffffffffffff1673ffffffffffffffffffffffffffffffffffffffff1681526020019081526020016000206000858152602001908152602001600020546117c190919063ffffffff16565b600360003373ffffffffffffffffffffffffffffffffffffffff1673ffffffffffffffffffffffffffffffffffffffff1681526020019081526020016000206000848152602001908152602001600020819055506001600083815260200190815260200160002060010160009054906101000a900473ffffffffffffffffffffffffffffffffffffffff1673ffffffffffffffffffffffffffffffffffffffff166323b872dd3330866040518463ffffffff1660e01b815260040161168093929190612254565b6020604051808303816000875af115801561169f573d6000803e3d6000fd5b505050506040513d601f19601f820116820180604052508101906116c39190612227565b50505050565b6116d16117ed565b73ffffffffffffffffffffffffffffffffffffffff166116ef610f51565b73ffffffffffffffffffffffffffffffffffffffff1614611745576040517f08c379a000000000000000000000000000000000000000000000000000000000815260040161173c9061213a565b60405180910390fd5b600073ffffffffffffffffffffffffffffffffffffffff168173ffffffffffffffffffffffffffffffffffffffff1614156117b5576040517f08c379a00000000000000000000000000000000000000000000000000000000081526004016117ac906122fd565b60405180910390fd5b6117be816117f5565b50565b600081836117cf919061231d565b905092915050565b600081836117e59190612373565b905092915050565b600033905090565b60008060009054906101000a900473ffffffffffffffffffffffffffffffffffffffff169050816000806101000a81548173ffffffffffffffffffffffffffffffffffffffff021916908373ffffffffffffffffffffffffffffffffffffffff1602179055508173ffffffffffffffffffffffffffffffffffffffff168173ffffffffffffffffffffffffffffffffffffffff167f8be0079c531659141344cd1fd0a4f28419497f9722a3daafe3b4186f6b6457e060405160405180910390a35050565b600081836118c79190612061565b905092915050565b600080fd5b600073ffffffffffffffffffffffffffffffffffffffff82169050919050565b60006118ff826118d4565b9050919050565b61190f816118f4565b811461191a57600080fd5b50565b60008135905061192c81611906565b92915050565b6000819050919050565b61194581611932565b811461195057600080fd5b50565b6000813590506119628161193c565b92915050565b6000806040838503121561197f5761197e6118cf565b5b600061198d8582860161191d565b925050602061199e85828601611953565b9150509250929050565b6000819050919050565b6119bb816119a8565b82525050565b60006020820190506119d660008301846119b2565b92915050565b6000602082840312156119f2576119f16118cf565b5b6000611a0084828501611953565b91505092915050565b611a1281611932565b82525050565b611a21816118f4565b82525050565b6000604082019050611a3c6000830185611a09565b611a496020830184611a18565b9392505050565b60028110611a5d57600080fd5b50565b600081359050611a6f81611a50565b92915050565b611a7e816119a8565b8114611a8957600080fd5b50565b600081359050611a9b81611a75565b92915050565b60008060008060808587031215611abb57611aba6118cf565b5b6000611ac987828801611a60565b9450506020611ada87828801611953565b9350506040611aeb87828801611a8c565b9250506060611afc87828801611a8c565b91505092959194509250565b6000602082019050611b1d6000830184611a18565b92915050565b60008060408385031215611b3a57611b396118cf565b5b6000611b4885828601611953565b9250506020611b598582860161191d565b9150509250929050565b600060208284031215611b7957611b786118cf565b5b6000611b8784828501611a8c565b91505092915050565b6000602082019050611ba56000830184611a09565b92915050565b60008060408385031215611bc257611bc16118cf565b5b6000611bd085828601611a8c565b9250506020611be185828601611953565b9150509250929050565b60008060408385031215611c0257611c016118cf565b5b6000611c1085828601611953565b9250506020611c2185828601611a60565b9150509250929050565b600081519050919050565b600082825260208201905092915050565b6000819050602082019050919050565b611c60816119a8565b82525050565b611c6f816118f4565b82525050565b7f4e487b7100000000000000000000000000000000000000000000000000000000600052602160045260246000fd5b60028110611cb557611cb4611c75565b5b50565b6000819050611cc682611ca4565b919050565b6000611cd682611cb8565b9050919050565b611ce681611ccb565b82525050565b611cf581611932565b82525050565b60c082016000820151611d116000850182611c57565b506020820151611d246020850182611c66565b506040820151611d376040850182611cdd565b506060820151611d4a6060850182611cec565b506080820151611d5d6080850182611c57565b5060a0820151611d7060a0850182611c57565b50505050565b6000611d828383611cfb565b60c08301905092915050565b6000602082019050919050565b6000611da682611c2b565b611db08185611c36565b9350611dbb83611c47565b8060005b83811015611dec578151611dd38882611d76565b9750611dde83611d8e565b925050600181019050611dbf565b5085935050505092915050565b60006020820190508181036000830152611e138184611d9b565b905092915050565b600060208284031215611e3157611e306118cf565b5b6000611e3f8482850161191d565b91505092915050565b600082825260208201905092915050565b7f4e6f7420656e6f7567682045544820666f7220627579696e6700000000000000600082015250565b6000611e8f601983611e48565b9150611e9a82611e59565b602082019050919050565b60006020820190508181036000830152611ebe81611e82565b9050919050565b7f496e73756666696369656e7420746f6b656e20616d6f756e7420666f7220736560008201527f6c6c696e67000000000000000000000000000000000000000000000000000000602082015250565b6000611f21602583611e48565b9150611f2c82611ec5565b604082019050919050565b60006020820190508181036000830152611f5081611f14565b9050919050565b7f5468652070726f766964656420616374696f6e20646f6573206e6f742065786960008201527f7374000000000000000000000000000000000000000000000000000000000000602082015250565b6000611fb3602283611e48565b9150611fbe82611f57565b604082019050919050565b60006020820190508181036000830152611fe281611fa6565b9050919050565b7f4e487b7100000000000000000000000000000000000000000000000000000000600052601160045260246000fd5b6000612023826119a8565b91507fffffffffffffffffffffffffffffffffffffffffffffffffffffffffffffffff82141561205657612055611fe9565b5b600182019050919050565b600061206c826119a8565b9150612077836119a8565b92508282101561208a57612089611fe9565b5b828203905092915050565b7f4e487b7100000000000000000000000000000000000000000000000000000000600052603260045260246000fd5b60006120cf826119a8565b915060008214156120e3576120e2611fe9565b5b600182039050919050565b7f4f776e61626c653a2063616c6c6572206973206e6f7420746865206f776e6572600082015250565b6000612124602083611e48565b915061212f826120ee565b602082019050919050565b6000602082019050818103600083015261215381612117565b9050919050565b7f54686520746f6b656e20646f6573206e6f742065786973742e00000000000000600082015250565b6000612190601983611e48565b915061219b8261215a565b602082019050919050565b600060208201905081810360008301526121bf81612183565b9050919050565b60006040820190506121db6000830185611a18565b6121e860208301846119b2565b9392505050565b60008115159050919050565b612204816121ef565b811461220f57600080fd5b50565b600081519050612221816121fb565b92915050565b60006020828403121561223d5761223c6118cf565b5b600061224b84828501612212565b91505092915050565b60006060820190506122696000830186611a18565b6122766020830185611a18565b61228360408301846119b2565b949350505050565b7f4f776e61626c653a206e6577206f776e657220697320746865207a65726f206160008201527f6464726573730000000000000000000000000000000000000000000000000000602082015250565b60006122e7602683611e48565b91506122f28261228b565b604082019050919050565b60006020820190508181036000830152612316816122da565b9050919050565b6000612328826119a8565b9150612333836119a8565b9250827fffffffffffffffffffffffffffffffffffffffffffffffffffffffffffffffff0382111561236857612367611fe9565b5b828201905092915050565b600061237e826119a8565b9150612389836119a8565b9250817fffffffffffffffffffffffffffffffffffffffffffffffffffffffffffffffff04831182151516156123c2576123c1611fe9565b5b82820290509291505056fea2646970667358221220f02c966b1d70ab2ab957bbec83741312dc7e1275b558ae4aa1f01287f550710864736f6c634300080a0033",
  "immutableReferences": {},
  "source": "// SPDX-License-Identifier: MIT\npragma solidity >=0.4.22 <0.9.0;\npragma abicoder v2;\n\nimport \"./Wallet.sol\";\n\ncontract Dex is Wallet {\n\n  using SafeMath for uint256;\n\n  enum Action {\n    BUY,\n    SELL\n  }\n\n  struct Order {\n    uint256 id;\n    address trader;\n    Action action;\n    bytes32 ticker;\n    uint256 amount;\n    uint256 price;\n  }\n\n  uint256 private nextId = 0;\n\n  mapping(bytes32 => mapping(Action => Order[])) orderBook;\n\n  function getOrderBook(bytes32 ticker, Action action) external view returns (Order[] memory)\n  {\n    return orderBook[ticker][action];\n  }\n\n  function createLimitOrder(Action action, bytes32 ticker, uint256 amount, uint256 price) public {\n    if (action == Action.BUY)\n    require(balances[msg.sender][\"ETH\"] >= amount.mul(price), \"Not enough ETH for buying\");\n    else if (action == Action.SELL)\n      require(balances[msg.sender][ticker] >= amount, \"Insufficient token amount for selling\");\n    else\n      revert(\"The provided action does not exist\");\n\n    Order[] storage orders = orderBook[ticker][action];\n\n    orders.push(\n      Order(nextId++, msg.sender, action, ticker, amount, price)\n    );\n\n    uint256 i = orders.length > 0 ? orders.length - 1 : 0;\n\n    if (action == Action.BUY)\n    {\n      while (i > 0)\n      {\n        if (orders[i].price <= orders[i - 1].price)\n          break;\n\n        Order memory order = orders[i];\n        orders[i] = orders[i - 1];\n        orders[i - 1] = order;\n        --i;\n      }\n    } else if (action == Action.SELL) {\n      while (i > 0)\n      {\n        if (orders[i].price >= orders[i - 1].price)\n          break;\n\n        Order memory order = orders[i];\n        orders[i] = orders[i - 1];\n        orders[i - 1] = order;\n        --i;\n      }\n    }\n  }\n\n}\n",
  "sourcePath": "/home/enrique/Documentos/Repositorios/learning-solidity/Dex/contracts/Dex.sol",
  "compiler": {
    "name": "solc",
    "version": "0.8.10+commit.fc410830.Emscripten.clang"
  },
  "schemaVersion": "3.4.4",
  "updatedAt": "2022-01-01T19:19:23.173Z",
  "networkType": "ethereum",
  "devdoc": {
    "kind": "dev",
    "methods": {
      "owner()": {
        "details": "Returns the address of the current owner."
      },
      "renounceOwnership()": {
        "details": "Leaves the contract without owner. It will not be possible to call `onlyOwner` functions anymore. Can only be called by the current owner. NOTE: Renouncing ownership will leave the contract without an owner, thereby removing any functionality that is only available to the owner."
      },
      "transferOwnership(address)": {
        "details": "Transfers ownership of the contract to a new account (`newOwner`). Can only be called by the current owner."
      }
    },
    "version": 1
  },
  "userdoc": {
    "kind": "user",
    "methods": {},
    "version": 1
  }
}