{
  "contractName": "Dex",
  "abi": [
    {
      "anonymous": false,
      "inputs": [
        {
          "indexed": true,
          "internalType": "address",
          "name": "previousOwner",
          "type": "address"
        },
        {
          "indexed": true,
          "internalType": "address",
          "name": "newOwner",
          "type": "address"
        }
      ],
      "name": "OwnershipTransferred",
      "type": "event"
    },
    {
      "inputs": [
        {
          "internalType": "bytes32",
          "name": "ticker",
          "type": "bytes32"
        },
        {
          "internalType": "address",
          "name": "tokenAddress",
          "type": "address"
        }
      ],
      "name": "addToken",
      "outputs": [],
      "stateMutability": "nonpayable",
      "type": "function"
    },
    {
      "inputs": [
        {
          "internalType": "address",
          "name": "",
          "type": "address"
        },
        {
          "internalType": "bytes32",
          "name": "",
          "type": "bytes32"
        }
      ],
      "name": "balances",
      "outputs": [
        {
          "internalType": "uint256",
          "name": "",
          "type": "uint256"
        }
      ],
      "stateMutability": "view",
      "type": "function",
      "constant": true
    },
    {
      "inputs": [
        {
          "internalType": "uint256",
          "name": "amount",
          "type": "uint256"
        },
        {
          "internalType": "bytes32",
          "name": "ticker",
          "type": "bytes32"
        }
      ],
      "name": "deposit",
      "outputs": [],
      "stateMutability": "nonpayable",
      "type": "function"
    },
    {
      "inputs": [],
      "name": "depositEth",
      "outputs": [],
      "stateMutability": "payable",
      "type": "function",
      "payable": true
    },
    {
      "inputs": [],
      "name": "owner",
      "outputs": [
        {
          "internalType": "address",
          "name": "",
          "type": "address"
        }
      ],
      "stateMutability": "view",
      "type": "function",
      "constant": true
    },
    {
      "inputs": [],
      "name": "renounceOwnership",
      "outputs": [],
      "stateMutability": "nonpayable",
      "type": "function"
    },
    {
      "inputs": [
        {
          "internalType": "uint256",
          "name": "",
          "type": "uint256"
        }
      ],
      "name": "tokenList",
      "outputs": [
        {
          "internalType": "bytes32",
          "name": "",
          "type": "bytes32"
        }
      ],
      "stateMutability": "view",
      "type": "function",
      "constant": true
    },
    {
      "inputs": [
        {
          "internalType": "bytes32",
          "name": "",
          "type": "bytes32"
        }
      ],
      "name": "tokenMapping",
      "outputs": [
        {
          "internalType": "bytes32",
          "name": "ticker",
          "type": "bytes32"
        },
        {
          "internalType": "address",
          "name": "tokenAddress",
          "type": "address"
        }
      ],
      "stateMutability": "view",
      "type": "function",
      "constant": true
    },
    {
      "inputs": [
        {
          "internalType": "address",
          "name": "newOwner",
          "type": "address"
        }
      ],
      "name": "transferOwnership",
      "outputs": [],
      "stateMutability": "nonpayable",
      "type": "function"
    },
    {
      "inputs": [
        {
          "internalType": "uint256",
          "name": "amount",
          "type": "uint256"
        },
        {
          "internalType": "bytes32",
          "name": "ticker",
          "type": "bytes32"
        }
      ],
      "name": "withdraw",
      "outputs": [],
      "stateMutability": "nonpayable",
      "type": "function"
    },
    {
      "inputs": [
        {
          "internalType": "bytes32",
          "name": "ticker",
          "type": "bytes32"
        },
        {
          "internalType": "enum Dex.Action",
          "name": "action",
          "type": "uint8"
        }
      ],
      "name": "getOrderBook",
      "outputs": [
        {
          "components": [
            {
              "internalType": "uint256",
              "name": "id",
              "type": "uint256"
            },
            {
              "internalType": "address",
              "name": "trader",
              "type": "address"
            },
            {
              "internalType": "enum Dex.Action",
              "name": "action",
              "type": "uint8"
            },
            {
              "internalType": "bytes32",
              "name": "ticker",
              "type": "bytes32"
            },
            {
              "internalType": "uint256",
              "name": "amount",
              "type": "uint256"
            },
            {
              "internalType": "uint256",
              "name": "price",
              "type": "uint256"
            }
          ],
          "internalType": "struct Dex.Order[]",
          "name": "",
          "type": "tuple[]"
        }
      ],
      "stateMutability": "view",
      "type": "function",
      "constant": true
    },
    {
      "inputs": [
        {
          "internalType": "enum Dex.Action",
          "name": "action",
          "type": "uint8"
        },
        {
          "internalType": "bytes32",
          "name": "ticker",
          "type": "bytes32"
        },
        {
          "internalType": "uint256",
          "name": "amount",
          "type": "uint256"
        },
        {
          "internalType": "uint256",
          "name": "price",
          "type": "uint256"
        }
      ],
      "name": "createLimitOrder",
      "outputs": [],
      "stateMutability": "nonpayable",
      "type": "function"
    }
  ],
  "bytecode": "0x608060405234801561001057600080fd5b5061002d61002261003260201b60201c565b61003a60201b60201c565b6100fe565b600033905090565b60008060009054906101000a900473ffffffffffffffffffffffffffffffffffffffff169050816000806101000a81548173ffffffffffffffffffffffffffffffffffffffff021916908373ffffffffffffffffffffffffffffffffffffffff1602179055508173ffffffffffffffffffffffffffffffffffffffff168173ffffffffffffffffffffffffffffffffffffffff167f8be0079c531659141344cd1fd0a4f28419497f9722a3daafe3b4186f6b6457e060405160405180910390a35050565b611c208061010d6000396000f3fe6080604052600436106100a75760003560e01c80639776aacf116100645780639776aacf1461019c5780639ead7222146101c5578063a8d2021a14610202578063ba58ea681461022b578063c9630cb014610268578063f2fde38b14610291576100a7565b80631f14df69146100ac578063439370b1146100e9578063667cb4ba146100f35780636f3b62f914610131578063715018a61461015a5780638da5cb5b14610171575b600080fd5b3480156100b857600080fd5b506100d360048036038101906100ce9190611227565b6102ba565b6040516100e09190611280565b60405180910390f35b6100f16102df565b005b3480156100ff57600080fd5b5061011a6004803603810190610115919061129b565b6103d8565b6040516101289291906112e6565b60405180910390f35b34801561013d57600080fd5b5061015860048036038101906101539190611360565b61041c565b005b34801561016657600080fd5b5061016f610788565b005b34801561017d57600080fd5b50610186610810565b60405161019391906113c7565b60405180910390f35b3480156101a857600080fd5b506101c360048036038101906101be91906113e2565b610839565b005b3480156101d157600080fd5b506101ec60048036038101906101e79190611422565b610974565b6040516101f9919061144f565b60405180910390f35b34801561020e57600080fd5b506102296004803603810190610224919061146a565b610998565b005b34801561023757600080fd5b50610252600480360381019061024d91906114aa565b610c0d565b60405161025f91906116b8565b60405180910390f35b34801561027457600080fd5b5061028f600480360381019061028a919061146a565b610d6e565b005b34801561029d57600080fd5b506102b860048036038101906102b391906116da565b610f88565b005b6003602052816000526040600020602052806000526040600020600091509150505481565b61036234600360003373ffffffffffffffffffffffffffffffffffffffff1673ffffffffffffffffffffffffffffffffffffffff16815260200190815260200160002060007f455448000000000000000000000000000000000000000000000000000000000081526020019081526020016000205461108090919063ffffffff16565b600360003373ffffffffffffffffffffffffffffffffffffffff1673ffffffffffffffffffffffffffffffffffffffff16815260200190815260200160002060007f4554480000000000000000000000000000000000000000000000000000000000815260200190815260200160002081905550565b60016020528060005260406000206000915090508060000154908060010160009054906101000a900473ffffffffffffffffffffffffffffffffffffffff16905082565b600060018111156104305761042f611534565b5b84600181111561044357610442611534565b5b14156105135761045c818361109690919063ffffffff16565b600360003373ffffffffffffffffffffffffffffffffffffffff1673ffffffffffffffffffffffffffffffffffffffff16815260200190815260200160002060007f4554480000000000000000000000000000000000000000000000000000000000815260200190815260200160002054101561050e576040517f08c379a000000000000000000000000000000000000000000000000000000000815260040161050590611764565b60405180910390fd5b610613565b60018081111561052657610525611534565b5b84600181111561053957610538611534565b5b14156105d75781600360003373ffffffffffffffffffffffffffffffffffffffff1673ffffffffffffffffffffffffffffffffffffffff16815260200190815260200160002060008581526020019081526020016000205410156105d2576040517f08c379a00000000000000000000000000000000000000000000000000000000081526004016105c9906117f6565b60405180910390fd5b610612565b6040517f08c379a000000000000000000000000000000000000000000000000000000000815260040161060990611888565b60405180910390fd5b5b600060056000858152602001908152602001600020600086600181111561063d5761063c611534565b5b600181111561064f5761064e611534565b5b81526020019081526020016000209050806040518060c0016040528060045481526020013373ffffffffffffffffffffffffffffffffffffffff1681526020018760018111156106a2576106a1611534565b5b81526020018681526020018581526020018481525090806001815401808255809150506001900390600052602060002090600502016000909190919091506000820151816000015560208201518160010160006101000a81548173ffffffffffffffffffffffffffffffffffffffff021916908373ffffffffffffffffffffffffffffffffffffffff16021790555060408201518160010160146101000a81548160ff0219169083600181111561075c5761075b611534565b5b0217905550606082015181600201556080820151816003015560a0820151816004015550505050505050565b6107906110ac565b73ffffffffffffffffffffffffffffffffffffffff166107ae610810565b73ffffffffffffffffffffffffffffffffffffffff1614610804576040517f08c379a00000000000000000000000000000000000000000000000000000000081526004016107fb906118f4565b60405180910390fd5b61080e60006110b4565b565b60008060009054906101000a900473ffffffffffffffffffffffffffffffffffffffff16905090565b6108416110ac565b73ffffffffffffffffffffffffffffffffffffffff1661085f610810565b73ffffffffffffffffffffffffffffffffffffffff16146108b5576040517f08c379a00000000000000000000000000000000000000000000000000000000081526004016108ac906118f4565b60405180910390fd5b600282908060018154018082558091505060019003906000526020600020016000909190919091505560405180604001604052808381526020018273ffffffffffffffffffffffffffffffffffffffff16815250600160008481526020019081526020016000206000820151816000015560208201518160010160006101000a81548173ffffffffffffffffffffffffffffffffffffffff021916908373ffffffffffffffffffffffffffffffffffffffff1602179055509050505050565b6002818154811061098457600080fd5b906000526020600020016000915090505481565b80600073ffffffffffffffffffffffffffffffffffffffff166001600083815260200190815260200160002060010160009054906101000a900473ffffffffffffffffffffffffffffffffffffffff1673ffffffffffffffffffffffffffffffffffffffff161415610a3f576040517f08c379a0000000000000000000000000000000000000000000000000000000008152600401610a3690611960565b60405180910390fd5b82600360003373ffffffffffffffffffffffffffffffffffffffff1673ffffffffffffffffffffffffffffffffffffffff1681526020019081526020016000206000848152602001908152602001600020541015610a9c57600080fd5b610aff83600360003373ffffffffffffffffffffffffffffffffffffffff1673ffffffffffffffffffffffffffffffffffffffff16815260200190815260200160002060008581526020019081526020016000205461117890919063ffffffff16565b600360003373ffffffffffffffffffffffffffffffffffffffff1673ffffffffffffffffffffffffffffffffffffffff1681526020019081526020016000206000848152602001908152602001600020819055506001600083815260200190815260200160002060010160009054906101000a900473ffffffffffffffffffffffffffffffffffffffff1673ffffffffffffffffffffffffffffffffffffffff1663a9059cbb33856040518363ffffffff1660e01b8152600401610bc4929190611980565b6020604051808303816000875af1158015610be3573d6000803e3d6000fd5b505050506040513d601f19601f82011682018060405250810190610c0791906119e1565b50505050565b6060600560008481526020019081526020016000206000836001811115610c3757610c36611534565b5b6001811115610c4957610c48611534565b5b8152602001908152602001600020805480602002602001604051908101604052809291908181526020016000905b82821015610d6257838290600052602060002090600502016040518060c0016040529081600082015481526020016001820160009054906101000a900473ffffffffffffffffffffffffffffffffffffffff1673ffffffffffffffffffffffffffffffffffffffff1673ffffffffffffffffffffffffffffffffffffffff1681526020016001820160149054906101000a900460ff166001811115610d1f57610d1e611534565b5b6001811115610d3157610d30611534565b5b8152602001600282015481526020016003820154815260200160048201548152505081526020019060010190610c77565b50505050905092915050565b80600073ffffffffffffffffffffffffffffffffffffffff166001600083815260200190815260200160002060010160009054906101000a900473ffffffffffffffffffffffffffffffffffffffff1673ffffffffffffffffffffffffffffffffffffffff161415610e15576040517f08c379a0000000000000000000000000000000000000000000000000000000008152600401610e0c90611960565b60405180910390fd5b610e7883600360003373ffffffffffffffffffffffffffffffffffffffff1673ffffffffffffffffffffffffffffffffffffffff16815260200190815260200160002060008581526020019081526020016000205461108090919063ffffffff16565b600360003373ffffffffffffffffffffffffffffffffffffffff1673ffffffffffffffffffffffffffffffffffffffff1681526020019081526020016000206000848152602001908152602001600020819055506001600083815260200190815260200160002060010160009054906101000a900473ffffffffffffffffffffffffffffffffffffffff1673ffffffffffffffffffffffffffffffffffffffff166323b872dd3330866040518463ffffffff1660e01b8152600401610f3f93929190611a0e565b6020604051808303816000875af1158015610f5e573d6000803e3d6000fd5b505050506040513d601f19601f82011682018060405250810190610f8291906119e1565b50505050565b610f906110ac565b73ffffffffffffffffffffffffffffffffffffffff16610fae610810565b73ffffffffffffffffffffffffffffffffffffffff1614611004576040517f08c379a0000000000000000000000000000000000000000000000000000000008152600401610ffb906118f4565b60405180910390fd5b600073ffffffffffffffffffffffffffffffffffffffff168173ffffffffffffffffffffffffffffffffffffffff161415611074576040517f08c379a000000000000000000000000000000000000000000000000000000000815260040161106b90611ab7565b60405180910390fd5b61107d816110b4565b50565b6000818361108e9190611b06565b905092915050565b600081836110a49190611b5c565b905092915050565b600033905090565b60008060009054906101000a900473ffffffffffffffffffffffffffffffffffffffff169050816000806101000a81548173ffffffffffffffffffffffffffffffffffffffff021916908373ffffffffffffffffffffffffffffffffffffffff1602179055508173ffffffffffffffffffffffffffffffffffffffff168173ffffffffffffffffffffffffffffffffffffffff167f8be0079c531659141344cd1fd0a4f28419497f9722a3daafe3b4186f6b6457e060405160405180910390a35050565b600081836111869190611bb6565b905092915050565b600080fd5b600073ffffffffffffffffffffffffffffffffffffffff82169050919050565b60006111be82611193565b9050919050565b6111ce816111b3565b81146111d957600080fd5b50565b6000813590506111eb816111c5565b92915050565b6000819050919050565b611204816111f1565b811461120f57600080fd5b50565b600081359050611221816111fb565b92915050565b6000806040838503121561123e5761123d61118e565b5b600061124c858286016111dc565b925050602061125d85828601611212565b9150509250929050565b6000819050919050565b61127a81611267565b82525050565b60006020820190506112956000830184611271565b92915050565b6000602082840312156112b1576112b061118e565b5b60006112bf84828501611212565b91505092915050565b6112d1816111f1565b82525050565b6112e0816111b3565b82525050565b60006040820190506112fb60008301856112c8565b61130860208301846112d7565b9392505050565b6002811061131c57600080fd5b50565b60008135905061132e8161130f565b92915050565b61133d81611267565b811461134857600080fd5b50565b60008135905061135a81611334565b92915050565b6000806000806080858703121561137a5761137961118e565b5b60006113888782880161131f565b945050602061139987828801611212565b93505060406113aa8782880161134b565b92505060606113bb8782880161134b565b91505092959194509250565b60006020820190506113dc60008301846112d7565b92915050565b600080604083850312156113f9576113f861118e565b5b600061140785828601611212565b9250506020611418858286016111dc565b9150509250929050565b6000602082840312156114385761143761118e565b5b60006114468482850161134b565b91505092915050565b600060208201905061146460008301846112c8565b92915050565b600080604083850312156114815761148061118e565b5b600061148f8582860161134b565b92505060206114a085828601611212565b9150509250929050565b600080604083850312156114c1576114c061118e565b5b60006114cf85828601611212565b92505060206114e08582860161131f565b9150509250929050565b600081519050919050565b600082825260208201905092915050565b6000819050602082019050919050565b61151f81611267565b82525050565b61152e816111b3565b82525050565b7f4e487b7100000000000000000000000000000000000000000000000000000000600052602160045260246000fd5b6002811061157457611573611534565b5b50565b600081905061158582611563565b919050565b600061159582611577565b9050919050565b6115a58161158a565b82525050565b6115b4816111f1565b82525050565b60c0820160008201516115d06000850182611516565b5060208201516115e36020850182611525565b5060408201516115f6604085018261159c565b50606082015161160960608501826115ab565b50608082015161161c6080850182611516565b5060a082015161162f60a0850182611516565b50505050565b600061164183836115ba565b60c08301905092915050565b6000602082019050919050565b6000611665826114ea565b61166f81856114f5565b935061167a83611506565b8060005b838110156116ab5781516116928882611635565b975061169d8361164d565b92505060018101905061167e565b5085935050505092915050565b600060208201905081810360008301526116d2818461165a565b905092915050565b6000602082840312156116f0576116ef61118e565b5b60006116fe848285016111dc565b91505092915050565b600082825260208201905092915050565b7f4e6f7420656e6f7567682045544820666f7220627579696e6700000000000000600082015250565b600061174e601983611707565b915061175982611718565b602082019050919050565b6000602082019050818103600083015261177d81611741565b9050919050565b7f496e73756666696369656e7420746f6b656e20616d6f756e7420666f7220736560008201527f6c6c696e67000000000000000000000000000000000000000000000000000000602082015250565b60006117e0602583611707565b91506117eb82611784565b604082019050919050565b6000602082019050818103600083015261180f816117d3565b9050919050565b7f5468652070726f766964656420616374696f6e20646f6573206e6f742065786960008201527f7374000000000000000000000000000000000000000000000000000000000000602082015250565b6000611872602283611707565b915061187d82611816565b604082019050919050565b600060208201905081810360008301526118a181611865565b9050919050565b7f4f776e61626c653a2063616c6c6572206973206e6f7420746865206f776e6572600082015250565b60006118de602083611707565b91506118e9826118a8565b602082019050919050565b6000602082019050818103600083015261190d816118d1565b9050919050565b7f54686520746f6b656e20646f6573206e6f742065786973742e00000000000000600082015250565b600061194a601983611707565b915061195582611914565b602082019050919050565b600060208201905081810360008301526119798161193d565b9050919050565b600060408201905061199560008301856112d7565b6119a26020830184611271565b9392505050565b60008115159050919050565b6119be816119a9565b81146119c957600080fd5b50565b6000815190506119db816119b5565b92915050565b6000602082840312156119f7576119f661118e565b5b6000611a05848285016119cc565b91505092915050565b6000606082019050611a2360008301866112d7565b611a3060208301856112d7565b611a3d6040830184611271565b949350505050565b7f4f776e61626c653a206e6577206f776e657220697320746865207a65726f206160008201527f6464726573730000000000000000000000000000000000000000000000000000602082015250565b6000611aa1602683611707565b9150611aac82611a45565b604082019050919050565b60006020820190508181036000830152611ad081611a94565b9050919050565b7f4e487b7100000000000000000000000000000000000000000000000000000000600052601160045260246000fd5b6000611b1182611267565b9150611b1c83611267565b9250827fffffffffffffffffffffffffffffffffffffffffffffffffffffffffffffffff03821115611b5157611b50611ad7565b5b828201905092915050565b6000611b6782611267565b9150611b7283611267565b9250817fffffffffffffffffffffffffffffffffffffffffffffffffffffffffffffffff0483118215151615611bab57611baa611ad7565b5b828202905092915050565b6000611bc182611267565b9150611bcc83611267565b925082821015611bdf57611bde611ad7565b5b82820390509291505056fea264697066735822122076f7d2a925febbcff43fd384505d9e3b0d01b91f289e03fe95234bfc35c86bc564736f6c634300080a0033",
  "immutableReferences": {},
  "source": "// SPDX-License-Identifier: MIT\npragma solidity >=0.4.22 <0.9.0;\npragma abicoder v2;\n\nimport \"./Wallet.sol\";\n\ncontract Dex is Wallet {\n\n  using SafeMath for uint256;\n\n  enum Action {\n    BUY,\n    SELL\n  }\n\n  struct Order {\n    uint256 id;\n    address trader;\n    Action action;\n    bytes32 ticker;\n    uint256 amount;\n    uint256 price;\n  }\n\n  uint256 private nextId;\n\n  mapping(bytes32 => mapping(Action => Order[])) orderBook;\n\n  function getOrderBook(bytes32 ticker, Action action) external view returns (Order[] memory)\n  {\n    return orderBook[ticker][action];\n  }\n\n  function createLimitOrder(Action action, bytes32 ticker, uint256 amount, uint256 price) public {\n    if (action == Action.BUY)\n      require(balances[msg.sender][\"ETH\"] >= amount.mul(price), \"Not enough ETH for buying\");\n    else if (action == Action.SELL)\n      require(balances[msg.sender][ticker] >= amount, \"Insufficient token amount for selling\");\n    else\n      revert(\"The provided action does not exist\");\n    \n    Order[] storage orders = orderBook[ticker][action];\n\n    orders.push(\n      Order(nextId, msg.sender, action, ticker, amount, price)\n    );\n  }\n}\n",
  "sourcePath": "/home/enrique/Documentos/Repositorios/learning-solidity/Dex/contracts/Dex.sol",
  "compiler": {
    "name": "solc",
    "version": "0.8.10+commit.fc410830.Emscripten.clang"
  },
  "schemaVersion": "3.4.4",
  "updatedAt": "2021-12-31T18:05:55.800Z",
  "networkType": "ethereum",
  "devdoc": {
    "kind": "dev",
    "methods": {
      "owner()": {
        "details": "Returns the address of the current owner."
      },
      "renounceOwnership()": {
        "details": "Leaves the contract without owner. It will not be possible to call `onlyOwner` functions anymore. Can only be called by the current owner. NOTE: Renouncing ownership will leave the contract without an owner, thereby removing any functionality that is only available to the owner."
      },
      "transferOwnership(address)": {
        "details": "Transfers ownership of the contract to a new account (`newOwner`). Can only be called by the current owner."
      }
    },
    "version": 1
  },
  "userdoc": {
    "kind": "user",
    "methods": {},
    "version": 1
  }
}