{
  "contractName": "Wallet",
  "abi": [
    {
      "inputs": [],
      "stateMutability": "nonpayable",
      "type": "constructor"
    },
    {
      "anonymous": false,
      "inputs": [
        {
          "indexed": true,
          "internalType": "address",
          "name": "previousOwner",
          "type": "address"
        },
        {
          "indexed": true,
          "internalType": "address",
          "name": "newOwner",
          "type": "address"
        }
      ],
      "name": "OwnershipTransferred",
      "type": "event"
    },
    {
      "inputs": [
        {
          "internalType": "address",
          "name": "",
          "type": "address"
        },
        {
          "internalType": "bytes32",
          "name": "",
          "type": "bytes32"
        }
      ],
      "name": "balances",
      "outputs": [
        {
          "internalType": "uint256",
          "name": "",
          "type": "uint256"
        }
      ],
      "stateMutability": "view",
      "type": "function"
    },
    {
      "inputs": [],
      "name": "owner",
      "outputs": [
        {
          "internalType": "address",
          "name": "",
          "type": "address"
        }
      ],
      "stateMutability": "view",
      "type": "function"
    },
    {
      "inputs": [],
      "name": "renounceOwnership",
      "outputs": [],
      "stateMutability": "nonpayable",
      "type": "function"
    },
    {
      "inputs": [
        {
          "internalType": "uint256",
          "name": "",
          "type": "uint256"
        }
      ],
      "name": "tokenList",
      "outputs": [
        {
          "internalType": "bytes32",
          "name": "",
          "type": "bytes32"
        }
      ],
      "stateMutability": "view",
      "type": "function"
    },
    {
      "inputs": [
        {
          "internalType": "bytes32",
          "name": "",
          "type": "bytes32"
        }
      ],
      "name": "tokenMapping",
      "outputs": [
        {
          "internalType": "bytes32",
          "name": "ticker",
          "type": "bytes32"
        },
        {
          "internalType": "address",
          "name": "tokenAddress",
          "type": "address"
        }
      ],
      "stateMutability": "view",
      "type": "function"
    },
    {
      "inputs": [
        {
          "internalType": "address",
          "name": "newOwner",
          "type": "address"
        }
      ],
      "name": "transferOwnership",
      "outputs": [],
      "stateMutability": "nonpayable",
      "type": "function"
    },
    {
      "inputs": [
        {
          "internalType": "bytes32",
          "name": "ticker",
          "type": "bytes32"
        },
        {
          "internalType": "address",
          "name": "tokenAddress",
          "type": "address"
        }
      ],
      "name": "addToken",
      "outputs": [],
      "stateMutability": "nonpayable",
      "type": "function"
    },
    {
      "inputs": [
        {
          "internalType": "uint256",
          "name": "amount",
          "type": "uint256"
        },
        {
          "internalType": "bytes32",
          "name": "ticker",
          "type": "bytes32"
        }
      ],
      "name": "deposit",
      "outputs": [],
      "stateMutability": "nonpayable",
      "type": "function"
    },
    {
      "inputs": [],
      "name": "depositEth",
      "outputs": [],
      "stateMutability": "payable",
      "type": "function"
    },
    {
      "inputs": [
        {
          "internalType": "uint256",
          "name": "amount",
          "type": "uint256"
        },
        {
          "internalType": "bytes32",
          "name": "ticker",
          "type": "bytes32"
        }
      ],
      "name": "withdraw",
      "outputs": [],
      "stateMutability": "nonpayable",
      "type": "function"
    }
  ],
  "bytecode": "0x608060405234801561001057600080fd5b5061002d61002261003260201b60201c565b61003a60201b60201c565b6100fe565b600033905090565b60008060009054906101000a900473ffffffffffffffffffffffffffffffffffffffff169050816000806101000a81548173ffffffffffffffffffffffffffffffffffffffff021916908373ffffffffffffffffffffffffffffffffffffffff1602179055508173ffffffffffffffffffffffffffffffffffffffff168173ffffffffffffffffffffffffffffffffffffffff167f8be0079c531659141344cd1fd0a4f28419497f9722a3daafe3b4186f6b6457e060405160405180910390a35050565b61121b8061010d6000396000f3fe6080604052600436106100915760003560e01c80639776aacf116100595780639776aacf1461015d5780639ead722214610186578063a8d2021a146101c3578063c9630cb0146101ec578063f2fde38b1461021557610091565b80631f14df6914610096578063439370b1146100d3578063667cb4ba146100dd578063715018a61461011b5780638da5cb5b14610132575b600080fd5b3480156100a257600080fd5b506100bd60048036038101906100b89190610cc8565b61023e565b6040516100ca9190610d21565b60405180910390f35b6100db610263565b005b3480156100e957600080fd5b5061010460048036038101906100ff9190610d3c565b61035c565b604051610112929190610d87565b60405180910390f35b34801561012757600080fd5b506101306103a0565b005b34801561013e57600080fd5b50610147610428565b6040516101549190610db0565b60405180910390f35b34801561016957600080fd5b50610184600480360381019061017f9190610dcb565b610451565b005b34801561019257600080fd5b506101ad60048036038101906101a89190610e37565b61058c565b6040516101ba9190610e64565b60405180910390f35b3480156101cf57600080fd5b506101ea60048036038101906101e59190610e7f565b6105b0565b005b3480156101f857600080fd5b50610213600480360381019061020e9190610e7f565b610825565b005b34801561022157600080fd5b5061023c60048036038101906102379190610ebf565b610a3f565b005b6003602052816000526040600020602052806000526040600020600091509150505481565b6102e634600360003373ffffffffffffffffffffffffffffffffffffffff1673ffffffffffffffffffffffffffffffffffffffff16815260200190815260200160002060007f4554480000000000000000000000000000000000000000000000000000000000815260200190815260200160002054610b3790919063ffffffff16565b600360003373ffffffffffffffffffffffffffffffffffffffff1673ffffffffffffffffffffffffffffffffffffffff16815260200190815260200160002060007f4554480000000000000000000000000000000000000000000000000000000000815260200190815260200160002081905550565b60016020528060005260406000206000915090508060000154908060010160009054906101000a900473ffffffffffffffffffffffffffffffffffffffff16905082565b6103a8610b4d565b73ffffffffffffffffffffffffffffffffffffffff166103c6610428565b73ffffffffffffffffffffffffffffffffffffffff161461041c576040517f08c379a000000000000000000000000000000000000000000000000000000000815260040161041390610f49565b60405180910390fd5b6104266000610b55565b565b60008060009054906101000a900473ffffffffffffffffffffffffffffffffffffffff16905090565b610459610b4d565b73ffffffffffffffffffffffffffffffffffffffff16610477610428565b73ffffffffffffffffffffffffffffffffffffffff16146104cd576040517f08c379a00000000000000000000000000000000000000000000000000000000081526004016104c490610f49565b60405180910390fd5b600282908060018154018082558091505060019003906000526020600020016000909190919091505560405180604001604052808381526020018273ffffffffffffffffffffffffffffffffffffffff16815250600160008481526020019081526020016000206000820151816000015560208201518160010160006101000a81548173ffffffffffffffffffffffffffffffffffffffff021916908373ffffffffffffffffffffffffffffffffffffffff1602179055509050505050565b6002818154811061059c57600080fd5b906000526020600020016000915090505481565b80600073ffffffffffffffffffffffffffffffffffffffff166001600083815260200190815260200160002060010160009054906101000a900473ffffffffffffffffffffffffffffffffffffffff1673ffffffffffffffffffffffffffffffffffffffff161415610657576040517f08c379a000000000000000000000000000000000000000000000000000000000815260040161064e90610fb5565b60405180910390fd5b82600360003373ffffffffffffffffffffffffffffffffffffffff1673ffffffffffffffffffffffffffffffffffffffff16815260200190815260200160002060008481526020019081526020016000205410156106b457600080fd5b61071783600360003373ffffffffffffffffffffffffffffffffffffffff1673ffffffffffffffffffffffffffffffffffffffff168152602001908152602001600020600085815260200190815260200160002054610c1990919063ffffffff16565b600360003373ffffffffffffffffffffffffffffffffffffffff1673ffffffffffffffffffffffffffffffffffffffff1681526020019081526020016000206000848152602001908152602001600020819055506001600083815260200190815260200160002060010160009054906101000a900473ffffffffffffffffffffffffffffffffffffffff1673ffffffffffffffffffffffffffffffffffffffff1663a9059cbb33856040518363ffffffff1660e01b81526004016107dc929190610fd5565b6020604051808303816000875af11580156107fb573d6000803e3d6000fd5b505050506040513d601f19601f8201168201806040525081019061081f9190611036565b50505050565b80600073ffffffffffffffffffffffffffffffffffffffff166001600083815260200190815260200160002060010160009054906101000a900473ffffffffffffffffffffffffffffffffffffffff1673ffffffffffffffffffffffffffffffffffffffff1614156108cc576040517f08c379a00000000000000000000000000000000000000000000000000000000081526004016108c390610fb5565b60405180910390fd5b61092f83600360003373ffffffffffffffffffffffffffffffffffffffff1673ffffffffffffffffffffffffffffffffffffffff168152602001908152602001600020600085815260200190815260200160002054610b3790919063ffffffff16565b600360003373ffffffffffffffffffffffffffffffffffffffff1673ffffffffffffffffffffffffffffffffffffffff1681526020019081526020016000206000848152602001908152602001600020819055506001600083815260200190815260200160002060010160009054906101000a900473ffffffffffffffffffffffffffffffffffffffff1673ffffffffffffffffffffffffffffffffffffffff166323b872dd3330866040518463ffffffff1660e01b81526004016109f693929190611063565b6020604051808303816000875af1158015610a15573d6000803e3d6000fd5b505050506040513d601f19601f82011682018060405250810190610a399190611036565b50505050565b610a47610b4d565b73ffffffffffffffffffffffffffffffffffffffff16610a65610428565b73ffffffffffffffffffffffffffffffffffffffff1614610abb576040517f08c379a0000000000000000000000000000000000000000000000000000000008152600401610ab290610f49565b60405180910390fd5b600073ffffffffffffffffffffffffffffffffffffffff168173ffffffffffffffffffffffffffffffffffffffff161415610b2b576040517f08c379a0000000000000000000000000000000000000000000000000000000008152600401610b229061110c565b60405180910390fd5b610b3481610b55565b50565b60008183610b45919061115b565b905092915050565b600033905090565b60008060009054906101000a900473ffffffffffffffffffffffffffffffffffffffff169050816000806101000a81548173ffffffffffffffffffffffffffffffffffffffff021916908373ffffffffffffffffffffffffffffffffffffffff1602179055508173ffffffffffffffffffffffffffffffffffffffff168173ffffffffffffffffffffffffffffffffffffffff167f8be0079c531659141344cd1fd0a4f28419497f9722a3daafe3b4186f6b6457e060405160405180910390a35050565b60008183610c2791906111b1565b905092915050565b600080fd5b600073ffffffffffffffffffffffffffffffffffffffff82169050919050565b6000610c5f82610c34565b9050919050565b610c6f81610c54565b8114610c7a57600080fd5b50565b600081359050610c8c81610c66565b92915050565b6000819050919050565b610ca581610c92565b8114610cb057600080fd5b50565b600081359050610cc281610c9c565b92915050565b60008060408385031215610cdf57610cde610c2f565b5b6000610ced85828601610c7d565b9250506020610cfe85828601610cb3565b9150509250929050565b6000819050919050565b610d1b81610d08565b82525050565b6000602082019050610d366000830184610d12565b92915050565b600060208284031215610d5257610d51610c2f565b5b6000610d6084828501610cb3565b91505092915050565b610d7281610c92565b82525050565b610d8181610c54565b82525050565b6000604082019050610d9c6000830185610d69565b610da96020830184610d78565b9392505050565b6000602082019050610dc56000830184610d78565b92915050565b60008060408385031215610de257610de1610c2f565b5b6000610df085828601610cb3565b9250506020610e0185828601610c7d565b9150509250929050565b610e1481610d08565b8114610e1f57600080fd5b50565b600081359050610e3181610e0b565b92915050565b600060208284031215610e4d57610e4c610c2f565b5b6000610e5b84828501610e22565b91505092915050565b6000602082019050610e796000830184610d69565b92915050565b60008060408385031215610e9657610e95610c2f565b5b6000610ea485828601610e22565b9250506020610eb585828601610cb3565b9150509250929050565b600060208284031215610ed557610ed4610c2f565b5b6000610ee384828501610c7d565b91505092915050565b600082825260208201905092915050565b7f4f776e61626c653a2063616c6c6572206973206e6f7420746865206f776e6572600082015250565b6000610f33602083610eec565b9150610f3e82610efd565b602082019050919050565b60006020820190508181036000830152610f6281610f26565b9050919050565b7f54686520746f6b656e20646f6573206e6f742065786973742e00000000000000600082015250565b6000610f9f601983610eec565b9150610faa82610f69565b602082019050919050565b60006020820190508181036000830152610fce81610f92565b9050919050565b6000604082019050610fea6000830185610d78565b610ff76020830184610d12565b9392505050565b60008115159050919050565b61101381610ffe565b811461101e57600080fd5b50565b6000815190506110308161100a565b92915050565b60006020828403121561104c5761104b610c2f565b5b600061105a84828501611021565b91505092915050565b60006060820190506110786000830186610d78565b6110856020830185610d78565b6110926040830184610d12565b949350505050565b7f4f776e61626c653a206e6577206f776e657220697320746865207a65726f206160008201527f6464726573730000000000000000000000000000000000000000000000000000602082015250565b60006110f6602683610eec565b91506111018261109a565b604082019050919050565b60006020820190508181036000830152611125816110e9565b9050919050565b7f4e487b7100000000000000000000000000000000000000000000000000000000600052601160045260246000fd5b600061116682610d08565b915061117183610d08565b9250827fffffffffffffffffffffffffffffffffffffffffffffffffffffffffffffffff038211156111a6576111a561112c565b5b828201905092915050565b60006111bc82610d08565b91506111c783610d08565b9250828210156111da576111d961112c565b5b82820390509291505056fea26469706673582212204cca34473d2e0b6964c54558e2d308ab57db0106a53657afda2d80ae6921ac2464736f6c634300080a0033",
  "immutableReferences": {},
  "source": "// SPDX-License-Identifier: MIT\npragma solidity >=0.4.22 <0.9.0;\n\nimport \"@openzeppelin/contracts/token/ERC20/IERC20.sol\";\nimport \"@openzeppelin/contracts/utils/math/SafeMath.sol\";\nimport \"@openzeppelin/contracts/access/Ownable.sol\";\n\ncontract Wallet is Ownable {\n  using SafeMath for uint256;\n  struct Token {\n    bytes32 ticker;\n    address tokenAddress; \n  }\n  mapping(bytes32 => Token) public tokenMapping;\n  bytes32[] public tokenList;\n  mapping(address => mapping(bytes32 => uint256)) public balances;\n\n  constructor() {\n  }\n\n  modifier TokenExists (bytes32 ticker) {\n    require(tokenMapping[ticker].tokenAddress != address(0), \"The token does not exist.\");\n    _;\n  }\n\n  function addToken(bytes32 ticker, address tokenAddress) external onlyOwner {\n    tokenList.push(ticker);\n    tokenMapping[ticker] = Token(ticker, tokenAddress);\n  }\n\n  function deposit(uint256 amount, bytes32 ticker) external TokenExists(ticker) {\n    // Balance will be checked by the other contract\n\n    balances[msg.sender][ticker] = balances[msg.sender][ticker].add(amount);\n    IERC20(tokenMapping[ticker].tokenAddress).transferFrom(msg.sender, address(this), amount);\n  }\n\n  function depositEth() external payable {\n    balances[msg.sender][\"ETH\"] = balances[msg.sender][\"ETH\"].add(msg.value);\n  }\n\n  function withdraw(uint256 amount, bytes32 ticker) external TokenExists(ticker) {\n    require(balances[msg.sender][ticker] >= amount);\n\n    balances[msg.sender][ticker] = balances[msg.sender][ticker].sub(amount);\n    IERC20(tokenMapping[ticker].tokenAddress).transfer(msg.sender, amount);\n  }\n}\n",
  "sourcePath": "/home/enrique/Documentos/Repositorios/learning-solidity/Dex/contracts/Wallet.sol",
  "compiler": {
    "name": "solc",
    "version": "0.8.10+commit.fc410830.Emscripten.clang"
  },
  "schemaVersion": "3.4.4",
  "updatedAt": "2021-12-31T15:08:11.541Z",
  "devdoc": {
    "kind": "dev",
    "methods": {
      "owner()": {
        "details": "Returns the address of the current owner."
      },
      "renounceOwnership()": {
        "details": "Leaves the contract without owner. It will not be possible to call `onlyOwner` functions anymore. Can only be called by the current owner. NOTE: Renouncing ownership will leave the contract without an owner, thereby removing any functionality that is only available to the owner."
      },
      "transferOwnership(address)": {
        "details": "Transfers ownership of the contract to a new account (`newOwner`). Can only be called by the current owner."
      }
    },
    "version": 1
  },
  "userdoc": {
    "kind": "user",
    "methods": {},
    "version": 1
  }
}